{
  "contractName": "CryptoBallers",
  "abi": [
    {
      "constant": true,
      "inputs": [
        {
          "name": "interfaceId",
          "type": "bytes4"
        }
      ],
      "name": "supportsInterface",
      "outputs": [
        {
          "name": "",
          "type": "bool"
        }
      ],
      "payable": false,
      "stateMutability": "view",
      "type": "function"
    },
    {
      "constant": true,
      "inputs": [
        {
          "name": "tokenId",
          "type": "uint256"
        }
      ],
      "name": "getApproved",
      "outputs": [
        {
          "name": "",
          "type": "address"
        }
      ],
      "payable": false,
      "stateMutability": "view",
      "type": "function"
    },
    {
      "constant": false,
      "inputs": [
        {
          "name": "to",
          "type": "address"
        },
        {
          "name": "tokenId",
          "type": "uint256"
        }
      ],
      "name": "approve",
      "outputs": [],
      "payable": false,
      "stateMutability": "nonpayable",
      "type": "function"
    },
    {
      "constant": false,
      "inputs": [
        {
          "name": "from",
          "type": "address"
        },
        {
          "name": "to",
          "type": "address"
        },
        {
          "name": "tokenId",
          "type": "uint256"
        }
      ],
      "name": "transferFrom",
      "outputs": [],
      "payable": false,
      "stateMutability": "nonpayable",
      "type": "function"
    },
    {
      "constant": false,
      "inputs": [
        {
          "name": "from",
          "type": "address"
        },
        {
          "name": "to",
          "type": "address"
        },
        {
          "name": "tokenId",
          "type": "uint256"
        }
      ],
      "name": "safeTransferFrom",
      "outputs": [],
      "payable": false,
      "stateMutability": "nonpayable",
      "type": "function"
    },
    {
      "constant": true,
      "inputs": [
        {
          "name": "tokenId",
          "type": "uint256"
        }
      ],
      "name": "ownerOf",
      "outputs": [
        {
          "name": "",
          "type": "address"
        }
      ],
      "payable": false,
      "stateMutability": "view",
      "type": "function"
    },
    {
      "constant": true,
      "inputs": [
        {
          "name": "owner",
          "type": "address"
        }
      ],
      "name": "balanceOf",
      "outputs": [
        {
          "name": "",
          "type": "uint256"
        }
      ],
      "payable": false,
      "stateMutability": "view",
      "type": "function"
    },
    {
      "constant": true,
      "inputs": [
        {
          "name": "",
          "type": "uint256"
        }
      ],
      "name": "ballers",
      "outputs": [
        {
          "name": "name",
          "type": "string"
        },
        {
          "name": "level",
          "type": "uint256"
        },
        {
          "name": "offenseSkill",
          "type": "uint256"
        },
        {
          "name": "defenseSkill",
          "type": "uint256"
        },
        {
          "name": "winCount",
          "type": "uint256"
        },
        {
          "name": "lossCount",
          "type": "uint256"
        }
      ],
      "payable": false,
      "stateMutability": "view",
      "type": "function"
    },
    {
      "constant": false,
      "inputs": [
        {
          "name": "to",
          "type": "address"
        },
        {
          "name": "approved",
          "type": "bool"
        }
      ],
      "name": "setApprovalForAll",
      "outputs": [],
      "payable": false,
      "stateMutability": "nonpayable",
      "type": "function"
    },
    {
      "constant": false,
      "inputs": [
        {
          "name": "from",
          "type": "address"
        },
        {
          "name": "to",
          "type": "address"
        },
        {
          "name": "tokenId",
          "type": "uint256"
        },
        {
          "name": "_data",
          "type": "bytes"
        }
      ],
      "name": "safeTransferFrom",
      "outputs": [],
      "payable": false,
      "stateMutability": "nonpayable",
      "type": "function"
    },
    {
      "constant": true,
      "inputs": [
        {
          "name": "owner",
          "type": "address"
        },
        {
          "name": "operator",
          "type": "address"
        }
      ],
      "name": "isApprovedForAll",
      "outputs": [
        {
          "name": "",
          "type": "bool"
        }
      ],
      "payable": false,
      "stateMutability": "view",
      "type": "function"
    },
    {
      "inputs": [],
      "payable": false,
      "stateMutability": "nonpayable",
      "type": "constructor"
    },
    {
      "anonymous": false,
      "inputs": [
        {
          "indexed": true,
          "name": "from",
          "type": "address"
        },
        {
          "indexed": true,
          "name": "to",
          "type": "address"
        },
        {
          "indexed": true,
          "name": "tokenId",
          "type": "uint256"
        }
      ],
      "name": "Transfer",
      "type": "event"
    },
    {
      "anonymous": false,
      "inputs": [
        {
          "indexed": true,
          "name": "owner",
          "type": "address"
        },
        {
          "indexed": true,
          "name": "approved",
          "type": "address"
        },
        {
          "indexed": true,
          "name": "tokenId",
          "type": "uint256"
        }
      ],
      "name": "Approval",
      "type": "event"
    },
    {
      "anonymous": false,
      "inputs": [
        {
          "indexed": true,
          "name": "owner",
          "type": "address"
        },
        {
          "indexed": true,
          "name": "operator",
          "type": "address"
        },
        {
          "indexed": false,
          "name": "approved",
          "type": "bool"
        }
      ],
      "name": "ApprovalForAll",
      "type": "event"
    },
    {
      "constant": false,
      "inputs": [],
      "name": "claimFreeBaller",
      "outputs": [],
      "payable": false,
      "stateMutability": "nonpayable",
      "type": "function"
    },
    {
      "constant": false,
      "inputs": [],
      "name": "buyBaller",
      "outputs": [],
      "payable": true,
      "stateMutability": "payable",
      "type": "function"
    },
    {
      "constant": false,
      "inputs": [
        {
          "name": "_ballerId",
          "type": "uint256"
        },
        {
          "name": "_opponentId",
          "type": "uint256"
        }
      ],
      "name": "playBall",
      "outputs": [],
      "payable": false,
      "stateMutability": "nonpayable",
      "type": "function"
    },
    {
      "constant": false,
      "inputs": [
        {
          "name": "_ballerId",
          "type": "uint256"
        },
        {
          "name": "_newName",
          "type": "string"
        }
      ],
      "name": "changeName",
      "outputs": [],
      "payable": false,
      "stateMutability": "nonpayable",
      "type": "function"
    },
    {
      "constant": true,
      "inputs": [],
      "name": "getNumBallers",
      "outputs": [
        {
          "name": "",
          "type": "uint256"
        }
      ],
      "payable": false,
      "stateMutability": "view",
      "type": "function"
    },
    {
      "constant": true,
      "inputs": [],
      "name": "getBallerPrice",
      "outputs": [
        {
          "name": "",
          "type": "uint256"
        }
      ],
      "payable": false,
      "stateMutability": "view",
      "type": "function"
    },
    {
      "constant": true,
      "inputs": [
        {
          "name": "_owner",
          "type": "address"
        }
      ],
      "name": "getOwnedCryptoballers",
      "outputs": [
        {
          "name": "",
          "type": "uint256[]"
        }
      ],
      "payable": false,
      "stateMutability": "view",
      "type": "function"
    }
  ],
  "bytecode": "0x608060405267016345785d8a00006009553480156200001d57600080fd5b506200005b6301ffc9a77c010000000000000000000000000000000000000000000000000000000002620000df640100000000026401000000009004565b620000986380ac58cd7c010000000000000000000000000000000000000000000000000000000002620000df640100000000026401000000009004565b33600560006101000a81548173ffffffffffffffffffffffffffffffffffffffff021916908373ffffffffffffffffffffffffffffffffffffffff1602179055506200019d565b63ffffffff7c010000000000000000000000000000000000000000000000000000000002817bffffffffffffffffffffffffffffffffffffffffffffffffffffffff1916141515156200013157600080fd5b6001600080837bffffffffffffffffffffffffffffffffffffffffffffffffffffffff19167bffffffffffffffffffffffffffffffffffffffffffffffffffffffff1916815260200190815260200160002060006101000a81548160ff02191690831515021790555050565b61251380620001ad6000396000f3006080604052600436106100fc576000357c0100000000000000000000000000000000000000000000000000000000900463ffffffff16806301ffc9a714610101578063081812fc14610165578063095ea7b3146101d257806314d895761461021f57806323b872dd146102295780632ec9a4c9146102965780633849defa146102ad5780633acc151e146102e457806342842e0e1461037c5780636352211e146103e957806370a08231146104565780638fc44845146104ad5780639eaf2bd0146104d8578063a22cb465146105a1578063a7f4d4c8146105f0578063b88d4fde1461061b578063c39cbef1146106ce578063e985e9c514610713575b600080fd5b34801561010d57600080fd5b5061014b60048036038101908080357bffffffffffffffffffffffffffffffffffffffffffffffffffffffff1916906020019092919050505061078e565b604051808215151515815260200191505060405180910390f35b34801561017157600080fd5b50610190600480360381019080803590602001909291905050506107f5565b604051808273ffffffffffffffffffffffffffffffffffffffff1673ffffffffffffffffffffffffffffffffffffffff16815260200191505060405180910390f35b3480156101de57600080fd5b5061021d600480360381019080803573ffffffffffffffffffffffffffffffffffffffff16906020019092919080359060200190929190505050610846565b005b61022761098b565b005b34801561023557600080fd5b50610294600480360381019080803573ffffffffffffffffffffffffffffffffffffffff169060200190929190803573ffffffffffffffffffffffffffffffffffffffff169060200190929190803590602001909291905050506109e1565b005b3480156102a257600080fd5b506102ab610ab0565b005b3480156102b957600080fd5b506102e26004803603810190808035906020019092919080359060200190929190505050610c3c565b005b3480156102f057600080fd5b50610325600480360381019080803573ffffffffffffffffffffffffffffffffffffffff1690602001909291905050506113da565b6040518080602001828103825283818151815260200191508051906020019060200280838360005b8381101561036857808201518184015260208101905061034d565b505050509050019250505060405180910390f35b34801561038857600080fd5b506103e7600480360381019080803573ffffffffffffffffffffffffffffffffffffffff169060200190929190803573ffffffffffffffffffffffffffffffffffffffff16906020019092919080359060200190929190505050611471565b005b3480156103f557600080fd5b5061041460048036038101908080359060200190929190505050611492565b604051808273ffffffffffffffffffffffffffffffffffffffff1673ffffffffffffffffffffffffffffffffffffffff16815260200191505060405180910390f35b34801561046257600080fd5b50610497600480360381019080803573ffffffffffffffffffffffffffffffffffffffff169060200190929190505050611510565b6040518082815260200191505060405180910390f35b3480156104b957600080fd5b506104c2611594565b6040518082815260200191505060405180910390f35b3480156104e457600080fd5b50610503600480360381019080803590602001909291905050506115a1565b6040518080602001878152602001868152602001858152602001848152602001838152602001828103825288818151815260200191508051906020019080838360005b83811015610561578082015181840152602081019050610546565b50505050905090810190601f16801561058e5780820380516001836020036101000a031916815260200191505b5097505050505050505060405180910390f35b3480156105ad57600080fd5b506105ee600480360381019080803573ffffffffffffffffffffffffffffffffffffffff169060200190929190803515159060200190929190505050611684565b005b3480156105fc57600080fd5b506106056117c0565b6040518082815260200191505060405180910390f35b34801561062757600080fd5b506106cc600480360381019080803573ffffffffffffffffffffffffffffffffffffffff169060200190929190803573ffffffffffffffffffffffffffffffffffffffff16906020019092919080359060200190929190803590602001908201803590602001908080601f01602080910402602001604051908101604052809392919081815260200183838082843782019150505050505091929192905050506117ca565b005b3480156106da57600080fd5b50610711600480360381019080803590602001909291908035906020019082018035906020019190919293919293905050506117f2565b005b34801561071f57600080fd5b50610774600480360381019080803573ffffffffffffffffffffffffffffffffffffffff169060200190929190803573ffffffffffffffffffffffffffffffffffffffff1690602001909291905050506118cc565b604051808215151515815260200191505060405180910390f35b6000806000837bffffffffffffffffffffffffffffffffffffffffffffffffffffffff19167bffffffffffffffffffffffffffffffffffffffffffffffffffffffff1916815260200190815260200160002060009054906101000a900460ff169050919050565b600061080082611960565b151561080b57600080fd5b6002600083815260200190815260200160002060009054906101000a900473ffffffffffffffffffffffffffffffffffffffff169050919050565b600061085182611492565b90508073ffffffffffffffffffffffffffffffffffffffff168373ffffffffffffffffffffffffffffffffffffffff161415151561088e57600080fd5b8073ffffffffffffffffffffffffffffffffffffffff163373ffffffffffffffffffffffffffffffffffffffff1614806108ce57506108cd81336118cc565b5b15156108d957600080fd5b826002600084815260200190815260200160002060006101000a81548173ffffffffffffffffffffffffffffffffffffffff021916908373ffffffffffffffffffffffffffffffffffffffff160217905550818373ffffffffffffffffffffffffffffffffffffffff168273ffffffffffffffffffffffffffffffffffffffff167f8c5be1e5ebec7d5bd14f71427d1e84f3dd0314c0f7b2291e5b200ac8c7c3b92560405160405180910390a4505050565b600954341015151561099c57600080fd5b6109df6040805190810160405280600981526020017f4c6172727920426964000000000000000000000000000000000000000000000081525060038060026119d2565b565b6109eb3382611b08565b15156109f657600080fd5b600073ffffffffffffffffffffffffffffffffffffffff168273ffffffffffffffffffffffffffffffffffffffff1614151515610a3257600080fd5b610a3c8382611b9d565b610a468382611ca0565b610a508282611dcf565b808273ffffffffffffffffffffffffffffffffffffffff168473ffffffffffffffffffffffffffffffffffffffff167fddf252ad1be2c89b69c2b068fc378daa952ba7f163c4a11628f55a4df523b3ef60405160405180910390a4505050565b60011515600760003373ffffffffffffffffffffffffffffffffffffffff1673ffffffffffffffffffffffffffffffffffffffff16815260200190815260200160002060009054906101000a900460ff16151514151515610b9f576040517f08c379a000000000000000000000000000000000000000000000000000000000815260040180806020018281038252602a8152602001807f596f75206861766520616c726561647920636c61696d656420796f757220667281526020017f65652062616c6c6572210000000000000000000000000000000000000000000081525060400191505060405180910390fd5b6001600760003373ffffffffffffffffffffffffffffffffffffffff1673ffffffffffffffffffffffffffffffffffffffff16815260200190815260200160002060006101000a81548160ff021916908315150217905550610c3a6040805190810160405280600981526020017f4c6172727920426964000000000000000000000000000000000000000000000081525060038060026119d2565b565b6000806000806000806000806000808b610c563382611b08565b1515610c6157600080fd5b610c6a8d611960565b1515610c7557600080fd5b610c7e8c611960565b1515610c8957600080fd5b60068d815481101515610c9857fe5b9060005260206000209060060201600201549a5060068c815481101515610cbb57fe5b9060005260206000209060060201600301549950610cd7611f29565b9850610ce1611f29565b97506005891015610cf35760018b039a505b6005891115610d035760018b019a505b6005881015610d135760018a0399505b6005891115610d235760018a0199505b898b111561107757600160068e815481101515610d3c57fe5b9060005260206000209060060201600401540160068e815481101515610d5e57fe5b906000526020600020906006020160040181905550600160068d815481101515610d8457fe5b9060005260206000209060060201600501540160068d815481101515610da657fe5b906000526020600020906006020160050181905550600160068e815481101515610dcc57fe5b9060005260206000209060060201600101540160068e815481101515610dee57fe5b906000526020600020906006020160010181905550600560068e815481101515610e1457fe5b90600052602060002090600602016001015414156110765761102e60068e815481101515610e3e57fe5b906000526020600020906006020160c06040519081016040529081600082018054600181600116156101000203166002900480601f016020809104026020016040519081016040528092919081815260200182805460018160011615610100020316600290048015610ef15780601f10610ec657610100808354040283529160200191610ef1565b820191906000526020600020905b815481529060010190602001808311610ed457829003601f168201915b505050505081526020016001820154815260200160028201548152602001600382015481526020016004820154815260200160058201548152505060068e815481101515610f3b57fe5b906000526020600020906006020160c06040519081016040529081600082018054600181600116156101000203166002900480601f016020809104026020016040519081016040528092919081815260200182805460018160011615610100020316600290048015610fee5780601f10610fc357610100808354040283529160200191610fee565b820191906000526020600020905b815481529060010190602001808311610fd157829003601f168201915b5050505050815260200160018201548152602001600282015481526020016003820154815260200160048201548152602001600582015481525050611fcf565b9650965096506110756040805190810160405280600d81526020017f4d61676963204a6f686e736f6e000000000000000000000000000000000000008152508888886119d2565b5b5b898b10156113cb57600160068d81548110151561109057fe5b9060005260206000209060060201600401540160068d8154811015156110b257fe5b906000526020600020906006020160040181905550600160068e8154811015156110d857fe5b9060005260206000209060060201600501540160068e8154811015156110fa57fe5b906000526020600020906006020160050181905550600160068d81548110151561112057fe5b9060005260206000209060060201600101540160068d81548110151561114257fe5b906000526020600020906006020160010181905550600560068d81548110151561116857fe5b90600052602060002090600602016001015414156113ca5761138260068e81548110151561119257fe5b906000526020600020906006020160c06040519081016040529081600082018054600181600116156101000203166002900480601f0160208091040260200160405190810160405280929190818152602001828054600181600116156101000203166002900480156112455780601f1061121a57610100808354040283529160200191611245565b820191906000526020600020905b81548152906001019060200180831161122857829003601f168201915b505050505081526020016001820154815260200160028201548152602001600382015481526020016004820154815260200160058201548152505060068e81548110151561128f57fe5b906000526020600020906006020160c06040519081016040529081600082018054600181600116156101000203166002900480601f0160208091040260200160405190810160405280929190818152602001828054600181600116156101000203166002900480156113425780601f1061131757610100808354040283529160200191611342565b820191906000526020600020905b81548152906001019060200180831161132557829003601f168201915b5050505050815260200160018201548152602001600282015481526020016003820154815260200160048201548152602001600582015481525050611fcf565b9350935093506113c96040805190810160405280600d81526020017f4d61676963204a6f686e736f6e000000000000000000000000000000000000008152508585856119d2565b5b5b50505050505050505050505050565b6060600860008373ffffffffffffffffffffffffffffffffffffffff1673ffffffffffffffffffffffffffffffffffffffff16815260200190815260200160002080548060200260200160405190810160405280929190818152602001828054801561146557602002820191906000526020600020905b815481526020019060010190808311611451575b50505050509050919050565b61148d83838360206040519081016040528060008152506117ca565b505050565b6000806001600084815260200190815260200160002060009054906101000a900473ffffffffffffffffffffffffffffffffffffffff169050600073ffffffffffffffffffffffffffffffffffffffff168173ffffffffffffffffffffffffffffffffffffffff161415151561150757600080fd5b80915050919050565b60008073ffffffffffffffffffffffffffffffffffffffff168273ffffffffffffffffffffffffffffffffffffffff161415151561154d57600080fd5b600360008373ffffffffffffffffffffffffffffffffffffffff1673ffffffffffffffffffffffffffffffffffffffff168152602001908152602001600020549050919050565b6000600680549050905090565b6006818154811015156115b057fe5b9060005260206000209060060201600091509050806000018054600181600116156101000203166002900480601f01602080910402602001604051908101604052809291908181526020018280546001816001161561010002031660029004801561165c5780601f106116315761010080835404028352916020019161165c565b820191906000526020600020905b81548152906001019060200180831161163f57829003601f168201915b5050505050908060010154908060020154908060030154908060040154908060050154905086565b3373ffffffffffffffffffffffffffffffffffffffff168273ffffffffffffffffffffffffffffffffffffffff16141515156116bf57600080fd5b80600460003373ffffffffffffffffffffffffffffffffffffffff1673ffffffffffffffffffffffffffffffffffffffff16815260200190815260200160002060008473ffffffffffffffffffffffffffffffffffffffff1673ffffffffffffffffffffffffffffffffffffffff16815260200190815260200160002060006101000a81548160ff0219169083151502179055508173ffffffffffffffffffffffffffffffffffffffff163373ffffffffffffffffffffffffffffffffffffffff167f17307eab39ab6107e8899845ad3d59bd9653f200f220920489ca2b5937696c3183604051808215151515815260200191505060405180910390a35050565b6000600954905090565b6117d58484846109e1565b6117e18484848461207b565b15156117ec57600080fd5b50505050565b6002836117fe81611960565b151561180957600080fd5b846118143382611b08565b151561181f57600080fd5b848460068881548110151561183057fe5b9060005260206000209060060201600001919061184e9291906123c2565b50508160068281548110151561186057fe5b90600052602060002090600602016001015411151561187e57600080fd5b846118893382611b08565b151561189457600080fd5b84846006888154811015156118a557fe5b906000526020600020906006020160000191906118c39291906123c2565b50505050505050565b6000600460008473ffffffffffffffffffffffffffffffffffffffff1673ffffffffffffffffffffffffffffffffffffffff16815260200190815260200160002060008373ffffffffffffffffffffffffffffffffffffffff1673ffffffffffffffffffffffffffffffffffffffff16815260200190815260200160002060009054906101000a900460ff16905092915050565b6000806001600084815260200190815260200160002060009054906101000a900473ffffffffffffffffffffffffffffffffffffffff169050600073ffffffffffffffffffffffffffffffffffffffff168173ffffffffffffffffffffffffffffffffffffffff161415915050919050565b6000600660c060405190810160405280878152602001868152602001858152602001848152602001600081526020016000815250908060018154018082558091505090600182039060005260206000209060060201600090919290919091506000820151816000019080519060200190611a4d929190612442565b506020820151816001015560408201518160020155606082015181600301556080820151816004015560a082015181600501555050506001600680549050039050611a98338261229d565b600860003373ffffffffffffffffffffffffffffffffffffffff1673ffffffffffffffffffffffffffffffffffffffff1681526020019081526020016000208190806001815401808255809150509060018203906000526020600020016000909192909190915055505050505050565b600080611b1483611492565b90508073ffffffffffffffffffffffffffffffffffffffff168473ffffffffffffffffffffffffffffffffffffffff161480611b8357508373ffffffffffffffffffffffffffffffffffffffff16611b6b846107f5565b73ffffffffffffffffffffffffffffffffffffffff16145b80611b945750611b9381856118cc565b5b91505092915050565b8173ffffffffffffffffffffffffffffffffffffffff16611bbd82611492565b73ffffffffffffffffffffffffffffffffffffffff16141515611bdf57600080fd5b600073ffffffffffffffffffffffffffffffffffffffff166002600083815260200190815260200160002060009054906101000a900473ffffffffffffffffffffffffffffffffffffffff1673ffffffffffffffffffffffffffffffffffffffff16141515611c9c5760006002600083815260200190815260200160002060006101000a81548173ffffffffffffffffffffffffffffffffffffffff021916908373ffffffffffffffffffffffffffffffffffffffff1602179055505b5050565b8173ffffffffffffffffffffffffffffffffffffffff16611cc082611492565b73ffffffffffffffffffffffffffffffffffffffff16141515611ce257600080fd5b611d356001600360008573ffffffffffffffffffffffffffffffffffffffff1673ffffffffffffffffffffffffffffffffffffffff1681526020019081526020016000205461234390919063ffffffff16565b600360008473ffffffffffffffffffffffffffffffffffffffff1673ffffffffffffffffffffffffffffffffffffffff1681526020019081526020016000208190555060006001600083815260200190815260200160002060006101000a81548173ffffffffffffffffffffffffffffffffffffffff021916908373ffffffffffffffffffffffffffffffffffffffff1602179055505050565b600073ffffffffffffffffffffffffffffffffffffffff166001600083815260200190815260200160002060009054906101000a900473ffffffffffffffffffffffffffffffffffffffff1673ffffffffffffffffffffffffffffffffffffffff16141515611e3d57600080fd5b816001600083815260200190815260200160002060006101000a81548173ffffffffffffffffffffffffffffffffffffffff021916908373ffffffffffffffffffffffffffffffffffffffff160217905550611ee26001600360008573ffffffffffffffffffffffffffffffffffffffff1673ffffffffffffffffffffffffffffffffffffffff1681526020019081526020016000205461236490919063ffffffff16565b600360008473ffffffffffffffffffffffffffffffffffffffff1673ffffffffffffffffffffffffffffffffffffffff168152602001908152602001600020819055505050565b600080444260405160200180838152602001828152602001925050506040516020818303038152906040526040518082805190602001908083835b602083101515611f895780518252602082019150602081019050602083039250611f64565b6001836020036101000a0380198251168184511680821785525050505050509050019150506040518091039020600190049050600b81811515611fc857fe5b0691505090565b6000806000806000806120066002611ff889602001518b6020015161236490919063ffffffff16565b61238590919063ffffffff16565b9250612036600261202889604001518b6040015161236490919063ffffffff16565b61238590919063ffffffff16565b9150612066600261205889606001518b6060015161236490919063ffffffff16565b61238590919063ffffffff16565b90508282829550955095505050509250925092565b60008061209d8573ffffffffffffffffffffffffffffffffffffffff166123af565b15156120ac5760019150612294565b8473ffffffffffffffffffffffffffffffffffffffff1663150b7a02338887876040518563ffffffff167c0100000000000000000000000000000000000000000000000000000000028152600401808573ffffffffffffffffffffffffffffffffffffffff1673ffffffffffffffffffffffffffffffffffffffff1681526020018473ffffffffffffffffffffffffffffffffffffffff1673ffffffffffffffffffffffffffffffffffffffff16815260200183815260200180602001828103825283818151815260200191508051906020019080838360005b838110156121a1578082015181840152602081019050612186565b50505050905090810190601f1680156121ce5780820380516001836020036101000a031916815260200191505b5095505050505050602060405180830381600087803b1580156121f057600080fd5b505af1158015612204573d6000803e3d6000fd5b505050506040513d602081101561221a57600080fd5b8101908080519060200190929190505050905063150b7a027c0100000000000000000000000000000000000000000000000000000000027bffffffffffffffffffffffffffffffffffffffffffffffffffffffff1916817bffffffffffffffffffffffffffffffffffffffffffffffffffffffff19161491505b50949350505050565b600073ffffffffffffffffffffffffffffffffffffffff168273ffffffffffffffffffffffffffffffffffffffff16141515156122d957600080fd5b6122e38282611dcf565b808273ffffffffffffffffffffffffffffffffffffffff16600073ffffffffffffffffffffffffffffffffffffffff167fddf252ad1be2c89b69c2b068fc378daa952ba7f163c4a11628f55a4df523b3ef60405160405180910390a45050565b60008083831115151561235557600080fd5b82840390508091505092915050565b600080828401905083811015151561237b57600080fd5b8091505092915050565b60008060008311151561239757600080fd5b82848115156123a257fe5b0490508091505092915050565b600080823b905060008111915050919050565b828054600181600116156101000203166002900490600052602060002090601f016020900481019282601f1061240357803560ff1916838001178555612431565b82800160010185558215612431579182015b82811115612430578235825591602001919060010190612415565b5b50905061243e91906124c2565b5090565b828054600181600116156101000203166002900490600052602060002090601f016020900481019282601f1061248357805160ff19168380011785556124b1565b828001600101855582156124b1579182015b828111156124b0578251825591602001919060010190612495565b5b5090506124be91906124c2565b5090565b6124e491905b808211156124e05760008160009055506001016124c8565b5090565b905600a165627a7a7230582062b3be8ed22fbbefef682fd17dcf660d178b10b1bb475b3655bf1729ed5a6ea30029",
  "source": "pragma solidity ^0.4.24;\n\nimport 'openzeppelin-solidity/contracts/token/ERC721/ERC721Full.sol';\n\ncontract CryptoBallers is ERC721 {\n\n    struct Baller {\n        string name;\n        uint level;\n        uint offenseSkill;\n        uint defenseSkill;\n        uint winCount;\n        uint lossCount;\n    }\n\n    address owner;\n    Baller[] public ballers;\n\n    // Mapping for if address has claimed their free baller\n    mapping(address => bool) claimedFreeBaller;\n    \n    // Mapping from owner to array of Token IDs owned \n    mapping (address => uint256[]) internal ownedBallers;\n\n    \n    // Fee for buying a baller\n    uint ballerFee = 0.10 ether;\n\n    /**\n    * @dev Ensures ownership of the specified token ID\n    * @param _tokenId uint256 ID of the token to check\n    */\n    modifier onlyOwnerOf(uint256 _tokenId) {\n        // TODO add your code\n        require(_isApprovedOrOwner(msg.sender, _tokenId));\n        _;\n    }\n\n    /**\n    * @dev Ensures ownership of contract\n    */\n    modifier onlyOwner() {\n        // TODO add your code\n        require(msg.sender == owner);\n        _;\n    }\n\n    /**\n    * @dev Ensures baller has level above specified level\n    * @param _level uint level that the baller needs to be above\n    * @param _ballerId uint ID of the Baller to check\n    */\n    modifier aboveLevel(uint _level, uint _ballerId) {\n        // TODO add your code\n        require(_exists(_ballerId));\n        _;\n        require(ballers[_ballerId].level > _level);\n        _;\n    }\n\n    constructor() public {\n        owner = msg.sender;\n    }\n\n    /**\n    * @dev Allows user to claim first free baller, ensure no address can claim more than one\n    */\n    function claimFreeBaller() public {\n        // TODO add your code\n        require(claimedFreeBaller[msg.sender] != true, \"You have already claimed your free baller!\");\n        claimedFreeBaller[msg.sender] = true;\n        _createBaller(\"Larry Bid\", 3, 3, 2);\n        \n    }\n\n    /**\n    * @dev Allows user to buy baller with set attributes\n    */\n    function buyBaller() public payable {\n        // TODO add your code\n        require(msg.value >= ballerFee);\n        _createBaller(\"Larry Bid\", 3, 3, 2);\n    }\n\n    /**\n    * @dev Play a game with your baller and an opponent baller\n    * If your baller has more offensive skill than your opponent's defensive skill\n    * you win, your level goes up, the opponent loses, and vice versa.\n    * If you win and your baller reaches level 5, you are awarded a new baller with a mix of traits\n    * from your baller and your opponent's baller.\n    * @param _ballerId uint ID of the Baller initiating the game\n    * targetId uint ID that the baller needs to be above\n    * EXTENSION - Each Player is assigned a random Health Value (0-10)\n    * If your baller or opponent health is 5 they will play at the same skill level\n    * If your ballers health is less than five they will have a temporary drop in offensive skill by 1\n    * If your ballers health is greater than five they will have a temporary increase in offensive skill by 1 \n    * If your opponent health is less than five they will have a temporary drop in defensive skill by 1 \n    * If your opponent health is greater than five they will have a temporary increase in defensive skill by 1\n    */\n    function playBall(uint _ballerId, uint _opponentId) onlyOwnerOf(_ballerId) public {\n        // TODO add your code\n        require(_exists(_ballerId));\n        require(_exists(_opponentId));\n        \n        uint myBallerOffense = ballers[_ballerId].offenseSkill;\n        uint opponentBallerDefense = ballers[_opponentId].defenseSkill;\n        \n        uint myBallerHealth = randomHealth();\n        uint opponentBallerHealth = randomHealth();\n        \n        if(myBallerHealth < 5){\n            myBallerOffense = myBallerOffense - 1;\n        }\n        \n        if(myBallerHealth > 5){\n            myBallerOffense = myBallerOffense + 1;\n        }\n        \n         if(opponentBallerHealth < 5){\n            opponentBallerDefense = opponentBallerDefense - 1;\n        }\n        \n        if(myBallerHealth > 5){\n            opponentBallerDefense = opponentBallerDefense + 1;\n        }\n        \n        if(myBallerOffense > opponentBallerDefense){\n            ballers[_ballerId].winCount = ballers[_ballerId].winCount + 1;\n            ballers[_opponentId].lossCount = ballers[_opponentId].lossCount + 1;\n            ballers[_ballerId].level = ballers[_ballerId].level + 1;\n            \n            if(ballers[_ballerId].level == 5){\n               (uint mLevel, uint mAttack, uint mDefense) = _breedBallers(ballers[_ballerId], ballers[_opponentId]);\n                _createBaller(\"Magic Johnson\", mLevel, mAttack, mDefense);\n            }\n\n        }\n        \n        if(myBallerOffense < opponentBallerDefense){\n            ballers[_opponentId].winCount = ballers[_opponentId].winCount + 1;\n            ballers[_ballerId].lossCount = ballers[_ballerId].lossCount + 1;\n            ballers[_opponentId].level = ballers[_opponentId].level + 1;\n            \n            if(ballers[_opponentId].level == 5){\n                (uint oLevel, uint oAttack, uint oDefense) = _breedBallers(ballers[_ballerId], ballers[_opponentId]);\n                _createBaller(\"Magic Johnson\", oLevel, oAttack, oDefense);\n            }\n        }\n    }\n\n    /**\n    * @dev Changes the name of your baller if they are above level two\n    * @param _ballerId uint ID of the Baller who's name you want to change\n    * @param _newName string new name you want to give to your Baller\n    */\n    function changeName(uint _ballerId, string _newName) external aboveLevel(2, _ballerId) onlyOwnerOf(_ballerId) {\n        // TODO add your code\n        ballers[_ballerId].name = _newName;\n    }\n\n    /**\n   * @dev Creates a baller based on the params given, adds them to the Baller array and mints a token\n   * @param _name string name of the Baller\n   * @param _level uint level of the Baller\n   * @param _offenseSkill offensive skill of the Baller\n   * @param _defenseSkill defensive skill of the Baller\n   */\n    function _createBaller(string _name, uint _level, uint _offenseSkill, uint _defenseSkill) internal {\n        // TODO add your code\n        ballers.push(Baller(_name, _level, _offenseSkill, _defenseSkill, 0, 0));\n        uint256 ballerId = ballers.length - 1;\n        _mint(msg.sender, ballerId);\n        ownedBallers[msg.sender].push(ballerId);\n    }\n\n    /**\n    * @dev Helper function for a new baller which averages the attributes of the level, attack, defense of the ballers\n    * @param _baller1 Baller first baller to average\n    * @param _baller2 Baller second baller to average\n    * @return tuple of level, attack and defense\n    */\n    function _breedBallers(Baller _baller1, Baller _baller2) internal pure returns (uint, uint, uint) {\n        uint level = _baller1.level.add(_baller2.level).div(2);\n        uint attack = _baller1.offenseSkill.add(_baller2.offenseSkill).div(2);\n        uint defense = _baller1.defenseSkill.add(_baller2.defenseSkill).div(2);\n        return (level, attack, defense);\n    }\n    \n    /**\n    EXTENSIONS\n    **/\n    \n   /**\n    * @dev Get the total number of ballers \n    * @return number of ballers\n    */\n   function getNumBallers() public view returns (uint) {\n        return ballers.length;\n    }\n   \n   /**\n    * @dev Get the total number of ballers \n    * @return number of ballers\n    */\n   function getBallerPrice() public view returns (uint) {\n        return ballerFee;\n    }\n    \n   /**\n    * @dev Function for determining all the CryptoBallers owned by a specific address\n    * @param _owner Address of owner\n    * @return array of CryptoBallers owned by _owner\n    */\n    function getOwnedCryptoballers(address _owner) public view returns (uint[]) {\n        return ownedBallers[_owner];\n    }\n   \n   /**\n    * @dev Helper function to get random Health Value between 0-10\n    * @return random health value\n    */\n    function randomHealth() private view returns (uint) {\n        uint randomHash = uint(keccak256(abi.encodePacked(block.difficulty, now)));\n        return randomHash % 11;\n    } \n      \n}",
  "sourcePath": "/Users/lesliemiller/Blockgeeks/BlockGeeks/Week3/CryptoBallersTruffle/contracts/CryptoBallers.sol",
  "compiler": {
    "name": "solc",
    "version": "0.4.24+commit.e67f0147.Emscripten.clang"
  },
  "schemaVersion": "2.0.1",
  "updatedAt": "2018-11-19T17:31:13.034Z"
}